:020000040800F2
:1000000000050020050100088B2F0008452400088A
:10001000892F00084F070008653C00080000000019
:10002000000000000000000000000000F53700089C
:100030005107000800000000013700084D39000892
:100040001F0100081F0100081F0100081F01000810
:100050001F0100081F0100081F0100081F01000800
:100060001F0100081F0100081F0100081F010008F0
:100070001F0100081F0100081F0100081F010008E0
:100080001F0100081F0100081F0100081F010008D0
:100090001F0100081F0100081F0100081F010008C0
:1000A0001F0100081F0100081F0100081F010008B0
:1000B0001F0100081F0100081F0100081F010008A0
:1000C0001F0100081F0100081F0100081F01000890
:1000D0001F0100087D3A00081F0100081F010008E9
:1000E0001F0100081F0100081F010008DFF810D0E1
:1000F00000F0FCFA00480047AD3C0008AFF3008078
:10010000000500200648804706480047FEE7FEE756
:10011000FEE7FEE7FEE7FEE7FEE7FEE7FEE7FEE7B7
:100120008D390008ED00000810B5002200E0521CD7
:10013000835C8C5CA34201D1002BF8D1D8B2E1B230
:10014000401A10BDF0B480EA0102D40F4200B2EBB5
:10015000410F02D20246084611464A0042D0C30D62
:10016000DDB2C1F3C752AD1A202D35DAC1F3160145
:1001700041F4000204B15242C5F1200602FA06F130
:100180002A411044B3EBD05F23D0C4B1012DA0EBC2
:10019000C35009DCF0BC4FF0004202EAC352DBB2AC
:1001A00000F5000000F0DDB9400000F1807000EBC8
:1001B000C350A0F1807040EAD170490009E04908BD
:1001C00041EAC071A0EBC35000F50000400800EB0D
:1001D000C350F0BC00F0BCB96142012202EB410106
:1001E000001BF6E7F0BC704781F00041AAE780F001
:1001F0000040A7E780EA010210B502F0004340008A
:1002000022D04A001FD0010E01EB1261C0F356004C
:10021000C2F3560240F4000042F40002A0FB0220A8
:1002200000047F39140400D0401C50EA124001D46D
:100230004000491EC2B20C0604EBD010401C40081E
:10024000802A02D003E0002010BD20F00100002928
:1002500000DA0020184310BD30B480EA010202F039
:10026000004530F0004221F0004013D090B1C30DA2
:10027000D40DC2F31601C0F31600E41A41F40001D4
:1002800040F400027D34914201D3641C00E0490037
:10029000002C02DA30BC002070474FF4000000232D
:1002A000914201D3891A034340084FEA4101F7D133
:1002B00051B1914202D14FF0004105E002D24FF01E
:1002C000010101E06FF0010103EBC450284430BC90
:1002D00000F03EB9420005D0C0F3C75252429142ED
:1002E00001DC0020704700EBC15070472DE9FE4F44
:1002F00081EA030404F0004421F0004100944FF02F
:10030000000B23F0004350EA01045ED052EA0304DC
:100310005BD0C3F30A54C1F30A552C44A4F2F3345E
:100320000194A0FB0254C1F3130141F48011C3F303
:10033000130343F4801301FB024400FB034E840AC1
:10034000970A44EA815447EA8357A4FB0768029559
:100350008D0A05FB07854FEA932C04FB0C542705F7
:10036000029D4FEA065847EA1637B5EB08056EEBD3
:10037000070C870E920E47EA811742EA8312A7FB09
:100380000201B6EB0B0164EB00042B0D43EA0C33C6
:100390005E1844EB1C50DA465146E7FB0201C5F3F8
:1003A00013044FEA0B3343EA14534FEA0432019C1F
:1003B00043EA0603A4F10C040294009CCDE900B4C6
:1003C00000F02AF903B0BDE8F08F00200146F9E7FC
:1003D0002DE9F04D81EA030404F0004B21F00045C3
:1003E00014464FF0000A23F0004150EA050220D0E5
:1003F00054EA01021DD0C5F30A570246C5F31303A0
:10040000C1F31300C1F30A5640F4801543F480137E
:10041000A7EB0608101BD64608F2FD3873EB050063
:1004200002D308F1010801E092185B41B8F1000F16
:1004300003DA00200146BDE8F08D00204FF4801162
:10044000064684460EE0171B73EB050705D3121B07
:1004500063EB050306434CEA010C49084FEA300000
:1004600092185B4150EA0107EDD152EA030012D025
:1004700082EA040083EA0501084305D0101BAB4162
:1004800006D20122002306E000224FF0004302E0E2
:100490006FF0010253101AEB06004CEB085110EB01
:1004A0000A0041EB0B01BDE8F04D00F0A6B8C10F0A
:1004B00080EAE0700844CA079623002100F051B892
:1004C00096230022114600F04CB820F00040C10DE8
:1004D000C0F3160040F400007F2901DA00207047C5
:1004E000962903DCC1F19601C840704796398840CF
:1004F000704700F0004230F000400AD0C10D01F515
:100500006071C0F3160042EA0151C208400711436E
:10051000704700200146704701F0004330B421F0DD
:10052000004150EA010206D00A0DA2F56072C1F343
:100530001301002A02DC30BC00207047440F44EA5B
:10054000C104C100E01830BC00EBC250AFF3008022
:100550000029A8BF7047401C490008BF20F00100D7
:10056000704710B4B0FA80FC00FA0CF050EA0104B5
:1005700004BF10BC704749B1CCF1200421FA04F447
:1005800011FA0CF118BF012121430843A3EB0C0120
:10059000CB1D4FEA00614FEA102042BF002010BC83
:1005A000704700EBC35010440029A4BF10BC704733
:1005B000401C490008BF20F0010010BC704710B576
:1005C00041000CD0C0F3C751962908DC7E2909DC14
:1005D00006DB410204D000F0004040F07E5010BD28
:1005E000002010BDC1F19604C4F1200100FA01F110
:1005F000E040FFF7ADFFA04010BD10B5141E73F131
:10060000000408DA401C41F1000192185B411A43D2
:1006100001D120F0010010BD2DE9F04D92469B461E
:1006200011B1B1FA81F202E0B0FA80F220329046C4
:1006300000F06EF804460F4640EA0A0041EA0B015A
:1006400053465A46084313D0114653EA010019D0C5
:10065000C8F14002504600F06AF805460E46504682
:100660005946424600F054F8084305D0012004E002
:1006700020463946BDE8F08D0020054346EAE07685
:100680002C4337430A986305E40AA0EB08000022D4
:10069000FD0A44EA47540A3002D500200146E9E742
:1006A000010510196941DDE9084500196941BDE8F6
:1006B000F04DA2E7002801DBC0F10040002901DB7A
:1006C000C1F10041814202D24FF0004004E04FF0FE
:1006D000005001D14FF0C0404FEA2062EFF300819B
:1006E00062F31F6181F3008870470000064C074DDC
:1006F00006E0E06840F0010394E8070098471034F2
:10070000AC42F6D3FFF7F6FC804B0008A04B000884
:10071000202A04DB203A00FA02F1002070479140C1
:10072000C2F1200320FA03F3194390407047202AB6
:1007300004DB203A21FA02F00021704721FA02F38B
:10074000D040C2F120029140084319467047FEE7AD
:100750007047000030B4421E3CBF30BC70470024DC
:100760004FF0050C4FF0E020074B042543618461F6
:10077000C0F810C0016911F4803FFBD00561521E22
:10078000F4D230BC704700004019010000EBC000FB
:10079000C1004FF0E020416100218161052101612C
:1007A000016911F4803FFBD0042101617047000012
:1007B0002DE9F74F04460079042807BF6079022825
:1007C00003B0BDE8F08FA089E0814FF00101D04A6D
:1007D000084602F096FECF4A0121042002F091FE65
:1007E000CD4ECE4FDFF838A3642542F210794FF496
:1007F0007A78A5812046029900F0CAF9C948DDF847
:1008000008B003F089F84FF48041C74801F011FEA9
:10081000A0894CF6CD414143CA0CC44931F81210AD
:10082000401A81B22182584602F07EFB41F28830A4
:10083000FFF790FFBEA003F06FF80421284603F0F5
:1008400035F8C0A003F068F82046019900F008FAD6
:10085000A28904230A21012002F006FEBB49A069F7
:10086000884205D220220721022002F05FFD0FE01E
:10087000B0FBF1F0A6FB0021C908494201EB810160
:1008800000EB410000F130020721022002F04EFD92
:10089000A069B0FBF7F0A6FB0021C908494201EBB3
:1008A000810100EB410000F130020821022002F03A
:1008B0003DFDA069B0FBF7F0A6FB0021C908494245
:1008C00001EB810100EB410000F130020821022020
:1008D00002F02CFD2E220921022002F027FDDFF874
:1008E00070B2A069B0FBFBF0A6FB0021C908494229
:1008F00001EB810100EB410000F130020A210220EE
:1009000002F014FDA069B0FBF9F0A6FB0021C908B4
:10091000494201EB810100EB410000F130020B2163
:10092000022002F003FDA069B0FBF8F0A6FB002155
:10093000C908494201EB810100EB410000F130029E
:100940000C21022002F0F2FCA069AAFB0010400971
:10095000A6FB0021C908494201EB810100EB4100DF
:1009600000F130020D21022002F0E0FCE069B84203
:1009700010D9B0FBF7F0A6FB0021C908494201EBF2
:10098000810100EB410000F130020821032002F058
:10099000CDFC04E020220821032002F0C7FCE0691E
:1009A000584510D9B0FBFBF0A6FB0021C90849420D
:1009B00001EB810100EB410000F13002092103202D
:1009C00002F0B4FC04E020220921032002F0AEFC76
:1009D000E069484510D9B0FBF9F0A6FB0021C90831
:1009E000494201EB810100EB410000F130020A2194
:1009F000032002F09BFC04E020220A21032002F0E5
:100A000095FCE069B0FBF8F0A6FB0021C90849425B
:100A100001EB810100EB410000F130020B210320CA
:100A200002F084FC2E220C21032002F07FFCE069FE
:100A3000AAFB00104009A6FB0021C908494201EBAE
:100A4000810100EB410000F130020D21032002F092
:100A50006DFC40A002F060FFA0690221B0FBF7F03E
:100A600002F024FF3FA002F057FFA069B0FBF8F0AE
:100A7000B0FBF8F108FB1100032102F017FF3AA0C8
:100A800002F04AFFA069B0FBF8F108FB1100032156
:100A900002F00CFF35A002F03FFFE0690121B0FB3E
:100AA000F7F002F003FF30A002F036FFE069B0FB80
:100AB000F8F0B0FBF8F108FB1100032102F0F6FE9C
:100AC00028A002F029FFE069B0FBF8F108FB110053
:100AD000032102F0EBFE1BA002F01EFF05F1320025
:100AE00085B2B5F57A7F7FF684AEE089A081204695
:100AF000029900F095F920A002F00EFFDE20A0710F
:100B000003B02046BDE8F04F0222002100F002BDF4
:100B1000430000208F000020CDCCCCCC40420F0001
:100B20001F85EB51580E000800100140904A000844
:100B30000A5B44656275675D2049287365742920E6
:100B40003D200000206D41200D0A00008096980095
:100B5000A08601005B44656275675D2055203D20DD
:100B6000000000002E000000200000002056202081
:100B7000202049203D2000005B44656275675D20B0
:100B80005465737420444F4E45200A200D0A00001E
:100B900070B5007D012818BF70BD0C46134802F0E7
:100BA000BBFE134D4FF48041284601F040FC00226B
:100BB0000321204602F096F802F074FD4FF4004144
:100BC000284601F036FC0BA002F0A6FE012115A27A
:100BD000084602F0C7FC18A20121032002F0C2FC63
:100BE0001AA20121042002F0BDFCFEE7000E00085D
:100BF000001001405B4572726F725D20494E4132B8
:100C0000323620566F6C74616765203E2031382083
:100C1000562C2043432073746F7070696E67200DEB
:100C20000A0000005820566F6C206F7665722031E4
:100C300038205620000000002020436C6F73652090
:100C40004343206E6F772020000000002020507268
:100C50006573732020524553455420200000000046
:100C600070B5044680692062E06960620D460846FE
:100C700001F048FDFFF729FCA061284601F068FD5E
:100C8000FFF723FCFFF71CFC3849FFF7B3FA4FF0DE
:100C90007F51FFF757FAFFF718FCE061FFF710FCF0
:100CA0003349FFF7A7FA0546A069FFF709FC294673
:100CB000FFF748FAFFF709FCA061A079AC2847D1FB
:100CC0002CA002F029FE2F4EA0690221B0FBF6F005
:100CD00002F0ECFD2CA002F01FFEA0694FF47A7523
:100CE000B0FBF5F0B0FBF5F105FB1100032102F0BC
:100CF000DDFD26A002F010FEA069B0FBF5F105FBBA
:100D00001100032102F0D2FD21A002F005FEE069EE
:100D10000121B0FBF6F002F0C9FD1CA002F0FCFDC1
:100D2000E069B0FBF5F0B0FBF5F105FB1100032124
:100D300002F0BCFD14A002F0EFFDE069B0FBF5F19C
:100D400005FB1100032102F0B1FD14A002F0E4FD47
:100D5000A069FFF7B5FB13498842B8BF70BD12A068
:100D600002F0DAFD0120207570BD00000D6C753FAA
:100D700052B81E405B44656275675D2055203D207A
:100D80000000000040420F002E0000002000000084
:100D900020562020202049203D200000206D4120A9
:100DA0000D0A00004054894B5B4572726F725D20E2
:100DB00021212120566F6C74616765203E203138F7
:100DC000562C2073746F70204343206F75747075B8
:100DD0007420212121200D0A0000000010B50C46CE
:100DE00007A002F099FD4FF480410C4801F01FFB71
:100DF00020460022BDE81040032101F073BF00002F
:100E00005B496E666F5D204F757470757420646900
:100E10007361626C65200D0A000000000010014043
:100E200070B504460D460CA002F076FD4FF48041EB
:100E30000F4801F0FEFAA0894CF6CD4141430D4A1E
:100E4000C90C32F81110401A81B221822846BDE83F
:100E5000704002F069B800005B496E666F5D204F1C
:100E6000757470757420656E61626C65200D0A0082
:100E700000100140904A000870B50E461546044621
:100E80001146FFF785FE2946204600F069FB2079D0
:100E9000E0B9E178A078814204D1E17CA27C914262
:100EA00008BF70BDE070A17CE174012808BF012972
:100EB00010D0164802F030FD4FF48041144801F084
:100EC000B6FA00220321284601F00CFF20790228FF
:100ED00005D00DE029462046FFF7A2FFF6E760792E
:100EE000022818BF70BD2A463146204600F018FA85
:100EF0002079042806BF6079022870BD2A46314651
:100F00002046BDE87040FFF753BC0000000E00080B
:100F100000100140002170B461F3070C61F30F2C45
:100F2000DE2666F3174C012661F30F0461F30F020E
:100F300061F31744083061F31F4261F31F6461F3EA
:100F4000070536C066F31F6C40F81819084EC161DA
:100F500061F30703016261F30F23C0E9091661F32E
:100F6000174361F31F63C0E9003C70BC7047000089
:100F7000000080BF2DE9F04704468079AC27C94EB8
:100F80000025DFF824934FF0DE08AC280FD16078FD
:100F9000002818BF89F800002079032800F0288174
:100FA000022399F800200121032002F02BFA207976
:100FB000C0B1012872D0022800F00781032800F098
:100FC0001781042818BFBDE8F08760787B2800F0FF
:100FD000618100F358810D2800F05C8116283FD014
:100FE00000F05DB960790122022814D0032818BFEF
:100FF000BDE8F087607804F10901432878D04EDC21
:10100000152876D03ADC072874D0092873D00D282B
:1010100073D000F044B960787A280CD005DC0D2834
:1010200025D016281CD000F03AB97C280AD07D289B
:101030000FD000F034B9A078012814BFA270A570B9
:1010400000F02DB901220421204600F063FA00F0DF
:1010500026B901221146204600F05CFA00F01FB9C3
:1010600002220021204600F055FA00F018B90322B0
:101070000021204600F04EFA00F011B9162808BFF2
:1010800084F8088000F00B81192804BFE0794554EA
:1010900000F00581402843D000F001B954E0472812
:1010A00036D00BDC442837D0452804BFE0794254C1
:1010B00000F0F580462827D000F0F1B87C2803D056
:1010C0007D280BD000F0EBB8E079801CA6FB002156
:1010D0004908A1EB81010844E071E0E0E079401C9F
:1010E000A6FB00214908A1EB81010844E071D6E08C
:1010F0001AE021E01CE023E0FFE7207A77281ABFFE
:10110000772020722772CAE0E27902205054C6E0AC
:10111000E27903205054C2E0E27904205054BEE04A
:10112000E27905205054BAE0E27906205054B6E046
:10113000E27907205054B2E0E27908205054AEE042
:10114000E27909205054AAE060787B281AD004DCA8
:101150000D2825D07A2806D0A1E07C2880D07D28D3
:101160003FF470AF9BE06079401CA6FB002149086A
:10117000A1EB81010844401CC2B20121204600F0CD
:10118000C9F98CE06079A6FB00214908A1EB810137
:101190000844401CC2B20121204600F0BBF97EE0A9
:1011A000607901283FF45CAF022802D0032806D002
:1011B00075E001220221204600F0ACF96FE0012227
:1011C0000321204600F0A6F969E060780D2803D0DD
:1011D000162807D07B2862D102221146204600F053
:1011E00099F95CE002220121204600F093F956E0D3
:1011F00060787B283FF426AF08DC162808BF89F802
:1012000001503FF42DAF45281BD048E07C2802D088
:101210007D280BD043E0607901287FF621AF401E86
:10122000C2B20321204600F075F938E06079022847
:10123000BFF416AF401CC2B20321204600F06AF989
:101240002DE099F80100401CA6FB00218908A1EBC4
:10125000810100EB410010F0FF0089F8010009D086
:10126000052804BFA77111A00AD0042808BF17A041
:1012700006D014E084F8068020A002F04DFB0EE0BA
:1012800002F04AFB0BE07C283FF4E3AE7D283FF4FC
:10129000E7AE04E002220421204600F03BF965702D
:1012A000BDE8F087ABAAAAAA2F0000205B446562C4
:1012B00075675D204465627567206D6F64652069A0
:1012C0007320656E61626C65200D0A005B44656287
:1012D00075675D204F6E65206D6F72652073746554
:1012E0007020746F20656E61626C65206465627544
:1012F00067206D6F6465200D0A0000005B44656225
:1013000075675D204465627567206D6F646520694F
:10131000732064697361626C65200D0A000000002F
:101320002DE9F0470446808917468846E081694ADE
:101330000121022002F0E5F8042300220A211846C8
:1013400002F092F800220321384601F0CBFC394626
:101350002046FFF71DFC604E00254FF4404130460B
:1013600001F067F84FF4FA70FFF7F4F94FF44041D9
:10137000304601F05CF84FF4FA70FFF7EBF96D1CA2
:10138000052DEADB41462046FFF76AFCA069FFF71E
:1013900097F8A2898146002A4FF004037ED00A21E3
:1013A000042002F061F8A189384601F0BDFD3946FC
:1013B0002046FFF7EDFB00254FF44041304601F099
:1013C00038F84FF4FA70FFF7C5F94FF44041304652
:1013D00001F02DF84FF4FA70FFF7BCF96D1C052DE4
:1013E000EADB41462046FFF73BFCA069FFF768F8BF
:1013F0008046FFF77EF806460D4641464846FEF712
:10140000F3FE20F00040FFF774F832462B46FEF75B
:10141000DFFF0022314BFEF769FFFFF77DF830490F
:10142000A062FEF7E7FEFFF750F805462DA002F098
:1014300073FA3148DFF8C480A0FB05104009A8FB0F
:101440000021C908494201EB810100EB4100012163
:1014500002F02CFAA8FB0510C608A8FB0610C0086D
:10146000404200EB800006EB4000012102F01EFA32
:1014700023A002F051FA704200EB800005EB40001F
:10148000012102F013FA1FA002F046FAE189384662
:1014900001F04AFD01211D4A042000E008E002F0AD
:1014A00017F82046BDE8F0470122022100F032B8CB
:1014B0004FF47A720A21042001F0D6FF144A012168
:1014C000042002F01EF84FF47A71384601F02CFD2A
:1014D0006DE7000086000020001001400000594028
:1014E000000020415B496E666F5D204C6173742083
:1014F0004C4152203D2000001F85EB51CDCCCCCC7F
:101500002E0000002025200D0A00000037000020DA
:101510004600002070B5044600790D461646A842E4
:1015200018BF01F079FD2571667108A002F0F4F989
:101530000121284602F0BAF90121304602F0B6F93D
:10154000BDE8704005A002F0E7B900005B496E6697
:101550006F5D204D656E753A200000000D0A000099
:101560002DE9F04704468089E081207A464E002527
:1015700089464FF47A774AF2D738AC280CD0DE2867
:1015800018BFBDE8F08741A002F0C6F901214AA2C8
:10159000084601F0E7FF42E0607A4FF47A71414378
:1015A000A07A00EBC00202EB001001EB8001E07AB0
:1015B00000EB800001EB400080B2A0F16401A0814B
:1015C000B1F5617F0DD960B1A574B0F57A7F1CD9F2
:1015D0003EA002F0A1F9012148A2084601F0C2FF95
:1015E0001DE00120A0744AA002F096F9A089042110
:1015F00002F05CF94CA002F08FF9A07801283AD1F2
:1016000049462046FFF70CFC35E0642807D248A085
:1016100002F082F9012152A2084601F0A3FFE089FD
:10162000A081B0FBF7F1A6FB0132D208524202EBD7
:10163000820201EB420161724AF2D73101FB008163
:10164000890DA6FB0132D208524202EB820201EB65
:101650004201A1724CF6CD414843C00CA6FB0021CB
:10166000C908494201EB810100EB4100E0724FF4EF
:10167000FA70FFF76FF825722046BDE8F0470222A6
:101680000021FFF747BF0000CDCCCCCC5B496E6694
:101690006F5D20557365722063616E63656C6C6568
:1016A000642063757272656E742073657474696EFC
:1016B00067200D0A00000000582043616E63656CCE
:1016C0003A20495F73657420000000005B45727228
:1016D0006F725D20496E76616C6964206375727209
:1016E000656E742076616C75653A2049203E203124
:1016F000303030206D41200D0A0000005820457226
:10170000723A20493E31303030206D4100000000F7
:101710005B496E666F5D20536574204343204F75AF
:10172000747075743A200000206D41200D0A00008D
:101730005B4572726F725D20496E76616C696420E0
:1017400063757272656E742076616C75653A2049B6
:10175000203C20313030206D41200D0A0000000077
:1017600058204572723A20493C20313030206D417A
:10177000000000002DE9F041264D04461646287869
:101780000F46012818BFBDE8F08123A12548FEF7C8
:10179000CBFC002804BF0120207523D022A12148C2
:1017A000FEF7C2FC002821D022A11E48FEF7BCFC97
:1017B000002821D021A11B48FEF7B6FC002808BF55
:1017C000AC201FD020A11748FEF7AEFC002808BFB0
:1017D000DE2017D01FA11348FEF7A6FCA0B120A061
:1017E00002F09AF800202870BDE8F081022211462C
:1017F0002046FFF78FFEF5E732463946204600F0D7
:101800002BFCEFE7A071EDE7022204212046FFF751
:1018100081FEE7E72E00002074657374206F766503
:10182000727500009800002074657374204C41525A
:1018300000000000726573657400000064656275E5
:1018400067206F6E000000006465627567206F6638
:10185000660000006175746F7465737400000000A9
:101860005B4572726F725D2053657269616C3A20DC
:10187000556E646566696E656420636F6D6D616E3B
:1018800064200D0A000000002DE9F04704460079AD
:10189000032800F0DD82A179AC2907D16179022308
:1018A00001EB00120121184601F0ACFD2079DFF8B0
:1018B000E893FA4D20B1012800F0B28100F045BA5A
:1018C000607902281CBF0328BDE8F087A079AC2806
:1018D0004ED0F34A0121022001F0FAFDF1A20521C8
:1018E000022001F027FEF04A0121032001F0F0FD63
:1018F000EEA20521032001F01DFEEDA20F21032021
:1019000001F018FEEBA20F21022001F013FE1122BC
:101910000121042001F06AFC12220F21042001F0B1
:1019200065FCA07801283FD0E34A0521042001F09E
:10193000CFFDE2A20321042001F0FCFDDFA20D2176
:10194000042001F0F7FDDE49A06988423CD9B0FBD4
:10195000F1F0A5FB0021C908494201EB810100EB30
:10196000410000F130020721022001F0DFFC30E0ED
:10197000E27901230321022001F076FDE07904F1F0
:1019800009010123425C0321084601F06DFDA28993
:1019900003230421022001F067FD0323E2890421CF
:1019A000184601F061FDA8E70421C64A084601F087
:1019B000A8FD20220321042001F0B8FC20220E21E2
:1019C000042001F0B3FCBEE720220721022001F031
:1019D000ADFCBD4EA069B0FBF6F0A5FB0021C90827
:1019E000494201EB810100EB410000F13002082186
:1019F000022001F09BFC2E220921022001F096FC1E
:101A0000B24FA069B0FBF7F0A5FB0021C90849421D
:101A100001EB810100EB410000F130020A210220BC
:101A200001F084FCA06942F21078B0FBF8F0A5FB4D
:101A30000021C908494201EB810100EB410000F19E
:101A400030020B21022001F071FCA0694FF47A7A78
:101A5000B0FBFAF0A5FB0021C908494201EB810166
:101A600000EB410000F130020C21022001F05EFC8D
:101A7000A069A9FB00104009A5FB0021C908494243
:101A800001EB810100EB410000F130020D21022049
:101A900001F04CFCE069B04210D9B0FBF6F0A5FBB8
:101AA0000021C908494201EB810100EB410000F12E
:101AB00030020821032001F039FC04E02022082133
:101AC000032001F033FCE069B84210D9B0FBF7F015
:101AD000A5FB0021C908494201EB810100EB41004F
:101AE00000F130020921032001F020FC04E0202253
:101AF0000921032001F01AFCE069404510D9B0FB30
:101B0000F8F0A5FB0021C908494201EB810100EB77
:101B1000410000F130020A21032001F007FC04E03B
:101B200020220A21032001F001FCE069B0FBFAF059
:101B3000A5FB0021C908494201EB810100EB4100EE
:101B400000F130020B21032001F0F0FB2E220C21CA
:101B5000032001F0EBFBE069A9FB00104009A5FBA5
:101B60000021C908494201EB810100EB410000F16D
:101B700030020D21032001F0D9FB6079022832D018
:101B8000032806BF0020524ABDE8F0872118497A91
:101B900030311154401C0328F8DB01214D4A08461E
:101BA00001F0AFFC4CA20521012001F0DBFC207A02
:101BB00077282FD03D220821012001F0EBFB2022C5
:101BC0000921012001F0E6FBE079414A401CC3B243
:101BD0000A21012001F0DEFCBDE8F0470E213FA202
:101BE000012001F0BFBC01213A4A084601F070FC17
:101BF0003BA20521012001F09DFCA28904230A21BA
:101C0000012001F031FCBDE8F0470E2133A2012094
:101C100001F090BC3F220821012001F087FBCEE7B4
:101C2000314A0321012001F053FC304A03210220F4
:101C300001F04EFC03212E4A084601F049FCA07930
:101C40000126AC2808BF10266079012804D002289C
:101C500012D003284ED05CE03E223146012001F034
:101C600065FB20223146022001F060FB2022314634
:101C7000032001F05BFB4CE020223146012001F003
:101C800055FB3E223146022001F050FB2022314616
:101C9000032001F04BFB3CE01F85EB51CDCCCCCCBD
:101CA00031000020205500003400002020490000B1
:101CB0006D41000020560000580000202020000048
:101CC000809698006400002040420F00A08601002A
:101CD000530000203700002020492000206D4100E3
:101CE0002049203D20000000760000205E000020FA
:101CF0003A00002020223146012001F017FB20226B
:101D00003146022001F012FB3E223146032001F051
:101D10000DFB11220121042001F068FA12220F218B
:101D2000042001F063FAA078012812D0964A072116
:101D3000042001F0CDFB95A20321042001F0FAFB61
:101D400092A20B21042001F0F5FB2079022810D08B
:101D50007BE004218F4A084601F0D3FB20220321B7
:101D6000042001F0E3FA20220E21042001F0DEFA23
:101D7000EBE7894A0421012001F0AAFB874A0121EF
:101D8000022001F0A5FB864A0121032001F0A0FBFF
:101D90008449A06AFEF72EFAFEF797FB06466328F1
:101DA00011D9A9FB06104009A5FB0021C908494229
:101DB00001EB810100EB410000F130020B21032017
:101DC00001F0B4FA04E020220B21032001F0AEFA66
:101DD000A5FB0610C708A5FB0710C008404200EB92
:101DE000800007EB400000F130020C21032001F0DD
:101DF0009DFA2E220D21032001F098FA784200EB83
:101E0000800006EB400000F130020E21032001F0BB
:101E10008DFA25221021032001F088FA624A01215F
:101E2000042001F055FBAFF248120521042001F017
:101E300081FB0423A2890A21184601F015FBAFF2A9
:101E400064120E21042001F075FB2079032831D1A2
:101E5000607901286BD0022818BFBDE8F08753A233
:101E60000121084601F066FB55A20121022001F084
:101E700061FB55A20121032001F05CFB54A201216A
:101E8000042001F057FB54A20721022001F052FB6D
:101E900053A20721032001F04DFB54A20721042087
:101EA00001F048FBA079AC2868D053A20E21022093
:101EB00001F040FB2079042818BFBDE8F0874F4AA5
:101EC0000121084601F004FBAFF2EC1205210120CC
:101ED00001F030FBAFF2FC120E21012001F02AFBD1
:101EE00047A20121022001F025FBAFF238220F2189
:101EF000022001F01FFB44A20121032001F01AFB84
:101F0000AFF254220F21032001F014FB404A0521B7
:101F1000042001F0DDFA11220121042001F066F90C
:101F2000BDE8F04712220F21042001F05FB9012122
:101F300038A2084601F0FEFA38A20121022001F081
:101F4000F9FA38A20121032001F0F4FA37A20121A5
:101F5000042001F0EFFA37A20721012001F0EAFA8C
:101F6000374A0721022001F0B3FA364A072103203D
:101F700001F0AEFA072134A2042099E735A20E2120
:101F8000022001F0EFFA95E73D00002020202020FC
:101F900000000000640000205E0000207D000020A2
:101FA0004900002000002041370000202020535429
:101FB0004D33324631303343385436200000000070
:101FC000414443203A200000444143203A2000008D
:101FD0004D4F53203A200000494E41323236200006
:101FE0004D435034373235202020000049524650AE
:101FF0003236304E202000002020200040000020FB
:1020000055203D200000000049203D200000000038
:102010004E000020566572203A200000536674205E
:102020003A200000487264203A2000005570642075
:102030003A200000416C70686120392E3164000044
:102040006A00002070000020323032352D30362DED
:1020500031330000446267002DE9F04107465A48D9
:1020600016460D46B0E80E108AB001AC84E80E109A
:10207000B0E80E1005AC84E80E100068099001F07D
:10208000BBFB52A001F048FC57A001F045FC5BA04F
:1020900001F042FC5CA001F03FFC01220021384627
:1020A000FFF738FA59A001F037FC00F0FDFF5EA001
:1020B00001F032FC00F0FAFD00F046FD01240DF1C4
:1020C000040804EBC4004044A0F10902E0B201217D
:1020D00001F0FEF9641C042CF3DD48A20421032066
:1020E00001F028FA4FF49670FEF734FB00F094FFED
:1020F00053A001F011FCDFF86C815B4C40212246BB
:10210000404600F0A0F900F039FB40224146284645
:1021100000F06EFB284600F089FBE8690028EDD14D
:1021200000F07AFF51A001F0F7FBA046584C424660
:102130006021204600F0AEF900F012FE6022214638
:10214000304600F047FE304600F054FEB0680028EC
:10215000EDD100F061FF42F213704E490090002370
:102160000A46284600F07CFAC0B14BA001F0D4FB2F
:10217000012152A2084601F0F5F955A201210220E1
:1021800001F0F0F9042307210220EA6901F03AF98D
:102190004FF49670FEF7DEFA00F03EFF0521284668
:1021A00000F076FC4CA001F0B7FB012038704FF432
:1021B00060414F4800F03BF9022200213846FFF70A
:1021C000A9F90AB0BDE8F0815C4B00085B5374616B
:1021D000727475705D20456C656374726F6E6963AF
:1021E000204C6F61640D0A005B53746172747570EA
:1021F0005D2056657273696F6E3A2000416C70689D
:102200006120392E316400000D0A00005B496E66C2
:102210006F5D2053797374656D20496E6974204F2A
:102220004B200D0A000000005B496E666F5D204F79
:102230004C454420496E6974204F4B200D0A000024
:102240005B496E666F5D20494E4132323620496EE1
:10225000697469616C697A696E672E2E2E200D0A89
:102260000000000000540040801A06005B496E66C2
:102270006F5D204D43503437323520496E697469A3
:10228000616C697A696E672E2E2E200D0A0000009F
:1022900000580040CDCC4C3D5B4572726F725D20A2
:1022A000494E4132323620436F6E666967757265FA
:1022B000204661696C6564200D0A00005820457253
:1022C000723A20414443204661696C2000000000BE
:1022D000436F6E663A2000005B496E666F5D204971
:1022E0006E697420436F6D706C657465200D0A0013
:1022F000001001402DE9F00191F803C000220CF01C
:102300000F031CF0100F1CBF91F802C04CEA03032E
:1023100091F800C04FF00F071CF0FF0F4FF00106BF
:1023200018BF04681CD00D8806FA02FC05EA0C05EB
:10233000654511D1950007FA05F824EA080403FA67
:1023400005F52C43CD78282D08BFC0F814C003D064
:10235000482D08BFC0F810C0521C082AE3D30460FF
:102360000A88FF2A87BF44680022BDE8F001704751
:1023700002F1080C0D8806FA0CFC05EA0C0565450F
:1023800011D1950007FA05F824EA080403FA05F5C7
:102390002C43CD78282D08BFC0F814C0CD78482D27
:1023A00008BFC0F810C0521C082AE1D34460BDE841
:1023B000F001704770B4DFF86CC010F0004F14BF2C
:1023C000DCF81C20DCF80420C0F303444FF4401375
:1023D00033EA00054FEA50534FEA031386B206FA78
:1023E00003F316D010F4801F08BF9A4303D00325CF
:1023F00005FA04F4A24342F07062002918BF1A43A0
:1024000010F0004F14BFCCF81C20CCF8042070BC96
:102410007047DCF8044022F0706224F07064CCF85D
:102420000440EAE700000140806880B270474161E3
:10243000704701617047C1607047002A14BF016195
:1024400041617047FEE770B50C460646012184B035
:102450001546480501F056F9304600F061F8ADF830
:1024600008404FF480610023ADF80A10ADF8043045
:1024700009014BF6FF73ADF80C10ADF80630694654
:102480003046009500F07CF80121304600F03FF81E
:1024900004B070BD70B50C460646012184B01546E7
:1024A000880501F02FF9304600F03AF8ADF8084001
:1024B0004FF480610023ADF80A10ADF80430090133
:1024C0004BF6FF73ADF80C10ADF806306946304698
:1024D000009500F055F80121304600F018F804B0DE
:1024E00070BD0029018814BF41F4806121F480612E
:1024F00001807047838A0022008B43EA004020F06D
:102500007F4031EA000008BF0122104670470029D1
:10251000018814BF41F0010121F0010101807047E1
:10252000A0F1804110B5B1F5A8414FF0010109D0EB
:10253000880501F0F3F8BDE8104000214FF4800059
:1025400001F0ECB84FF4001001F0E8F8BDE81040DD
:1025500000214FF4001001F0E1B80029018814BFF8
:1025600041F4807121F48071018070470029018855
:1025700014BF41F4007121F4007101807047000024
:1025800070B50446808886B00D4620F03F06684648
:1025900001F0DCF829490298B0FBF1F189B246EA72
:1025A0000102A280228822F001022280244B2A68A4
:1025B0009A421DD85200B0FBF2F080B2042838BF16
:1025C0000420491C2184A083208840F00100208041
:1025D0002088A9886A8920F00A0020F480601143CD
:1025E00008432080A88929890843208106B070BD4E
:1025F000EB88A3F53F4CBCF1FF0C19D002EBC203F2
:1026000003EB0212B0FBF2F080B240F4804002050E
:10261000120D08BF40F0010040F400404FF49672E4
:1026200051434FF47A72B1FBF2F1491C2184CAE79D
:1026300002EB4202B0FBF2F080B2E8E740420F004A
:10264000A0860100008AC0B27047002A14BF41F082
:10265000010101F0FE010182704701827047000014
:102660002DE9F047DFF89080089F994692460E4684
:1026700004464145BCBF48F20200BDE8F0870F2187
:102680001046FDF727FE4146FDF7B4FD05463146ED
:102690001A48FDF7E1FD294601F0F4FA05464045E8
:1026A000BCBF48F20100BDE8F08741465046E660F5
:1026B000FDF7A0FD8246A06041464846FDF79AFD21
:1026C00060612783314650462561FDF793FD014641
:1026D0000B48FDF7C1FD01F015FBFDF7F6FE82B2D8
:1026E0000521204600F0EEF9E069002818BF48F205
:1026F0000300BDE8F08700006F12833AACC5A73D28
:10270000ACC5A73B70B50546022100F05FF9FDF7A7
:10271000D7FE0C49FDF76EFD0446288BA0F51C5131
:10272000103908D0FDF7CCFE0749FDF763FD2146BF
:10273000FDF760FD04462046BDE870400349FDF703
:1027400059BD00000AD7A33A17B7D13800247449FD
:1027500010B50446042100F039F900B2FDF7A7FED8
:10276000A168FDF747FD6169FDF73EFDBDE810403A
:102770000149FDF73FBD00000024744908B501215F
:10278000082000F0D7FFC020ADF800001C208DF815
:10279000030003208DF8020069460248FFF7AAFDF6
:1027A00008BD0000000C01402DE9F0410546164629
:1027B0000F460E4C0068FFF79DFE012807D0641EEF
:1027C00008D039462868FFF795FE0128F7D1012087
:1027D000BDE8F0814FF40140E861012E03D10121F1
:1027E0002868FFF7C3FE0020BDE8F081801A0600CC
:1027F000002808BF48F2021116D0002908BF48F28D
:10280000011111D0A2F14003102B28BF48F203118F
:102810000AD201605100017100218160C160016133
:1028200042F2107241610283C161704770B5064681
:10283000012137A2084600F07DFEFE21304600F05F
:10284000C5F8044637A20121032000F073FE0423DB
:1028500022460D21032000F0D5FDFF21304600F077
:10286000B5F8054633A20121042000F063FE0423DD
:102870002A460D21184600F0C5FDA4F5A8404938A8
:1028800004BFA5F50050B0F5187023D02DA001F0BD
:1028900043F814220121022000F0A8FC14220F2189
:1028A000022000F0A3FC2FA20321022000F042FE30
:1028B00030A20121032000F03DFE33A201210420BB
:1028C00000F038FE04230A211846F26900F09AFD50
:1028D000002070BD31A001F01FF813220121022059
:1028E00000F084FC13220F21022000F07FFC33A2B1
:1028F0000321022000F036FE4FF49670FDF72AFF08
:1029000002220121104600F071FC012070BD000080
:102910002020494E4132323620436865636B2020C7
:10292000000000004D616E75203A20202020307894
:102930000000000044696520203A202020203078E3
:10294000000000005B4572726F725D20494E41329B
:10295000323620496E6974204661696C6564200DC9
:102960000A0000002020204661696C656420202058
:1029700000000000202050726573732020524553E0
:1029800045542020000000002020436F6465203A59
:102990002020202020202020000000005B496E66BF
:1029A0006F5D20494E4132323620496E69742043B2
:1029B0006F6D706C657465200D0A00002020416306
:1029C00063657074656420200000000070B50446E3
:1029D00000200E46E06101212068FFF7BEFD284D72
:1029E000002229462046FFF7DFFE217900222068D9
:1029F000FFF72BFE012223492046FFF7D5FE314683
:102A00002068FFF72AFE01221F492046FFF7CCFE6F
:102A100001212068FFF7A1FD002229462046FFF78B
:102A2000C3FE217901222068FFF70FFE0122691CF5
:102A30002046FFF7B9FE01212068FFF752FD134E33
:102A4000012231462046FFF7AFFE2068FFF7FAFD6E
:102A5000050200212068FFF744FD01212068FFF7EF
:102A600085FD002231462046FFF79EFE2068FFF7D5
:102A7000E9FD054301212068FFF733FD284670BDBD
:102A800001000300820007008400070040000300EB
:102A9000072984BF0020704770B50C460546002109
:102AA000FFF794FF20F4606040EA442082B20021E6
:102AB000284600F007F8E86900280CBF0120002034
:102AC00070BD000070B5044600200E46E06115465A
:102AD00001212068FFF741FD002218492046FFF739
:102AE00063FE217900222068FFF7AFFD012214491F
:102AF0002046FFF759FE31462068FFF7AEFD114E24
:102B0000012231462046FFF74FFE290A2068FFF7D1
:102B1000A4FD012231462046FFF746FEE9B22068B7
:102B2000FFF79BFD012231462046FFF73DFE20685E
:102B3000BDE870400121FFF719BD0000010003004E
:102B4000820007008400070038B50121042000F04E
:102B5000F1FD0F20ADF8000010208DF803000120DA
:102B6000084C8DF8020069462046FFF7C3FBF021B0
:102B7000ADF8001048218DF8031069462046FFF794
:102B8000B9FB38BD000801402DE9F047444882B048
:102B90000025D0E90010CDE90010DFF80891424F80
:102BA0002E46EA464FF0F0083AF816103846FFF77E
:102BB00042FC0A20FDF7EAFD3846FFF735FC00F03D
:102BC000F000F02860D01420FDF7C4FD3846FFF770
:102BD0002BFC00F0F004F02C56D04FF40051484686
:102BE000FFF727FC36B1012E14D0022E22D0032E7F
:102BF00030D03EE0E02C08BF45253AD0D02C08BFAD
:102C0000462536D0B02C08BF472532D0702C08BFDF
:102C10007A252EE0E02C08BF44252AD0D02C08BF0E
:102C2000402526D0B02C08BF432522D0702C08BFE9
:102C30007B251EE0E02C08BF07251AD0D02C08BF4A
:102C4000152516D0B02C08BF092512D0702C08BF4E
:102C50007C250EE0E02C08BF16250AD0D02C08BF3A
:102C6000192506D0B02C08BF0D2502D0702C08BF46
:102C70007D253846FFF7D8FB38EA0000F9D14FF43C
:102C800000514846FFF7D3FB0F213846FFF7D1FB31
:102C9000701CC6B2042E87D302B02846BDE8F08768
:102CA000783D0008001001400008014038B50121BE
:102CB000102000F03FFD10208DF803004FF460401D
:102CC000ADF800000320064C8DF80200694620464E
:102CD000FFF710FB4FF460412046FFF7AAFB38BD19
:102CE0000010014070B5044600200E46A060154655
:102CF00001212068FFF731FC00221649204600F030
:102D000045F8217900222068FFF79FFC0122124933
:102D1000204600F03BF8C5F3032000EB0610C1B2DB
:102D2000EDB22068FFF799FC0C4E01223146204697
:102D300000F02CF829462068FFF78FFC012231466D
:102D4000204600F023F82068BDE870400121FFF71D
:102D50000DBC000001000300820007008400070092
:102D600008B50121082000F0E5FC4FF44060ADF803
:102D700000001C208DF8030003208DF80200694636
:102D80000148FFF7B7FA08BD000C01402DE9F041FA
:102D9000054616460F460E4C0068FFF7ABFB0128B0
:102DA00007D0641E08D039462868FFF7A3FB012826
:102DB000F7D10120BDE8F0814FF40140A860012E59
:102DC00003D101212868FFF7D1FB0020BDE8F08185
:102DD000801A0600002808BF48F2021108D0002916
:102DE00008BF48F2011103D0016051000171704722
:102DF0008160704710B50446012124A2084600F006
:102E000099FB002211462046FFF76CFFA0680028BE
:102E100023D023A000F080FD14220121022000F025
:102E2000E5F914220F21022000F0E0F924A2032189
:102E3000022000F07FFB26A20121032000F07AFB94
:102E400028A20121042000F075FB04230A21184662
:102E5000A26800F0D7FA002010BD27A000F05CFDAA
:102E600013220121022000F0C1F913220F210220B8
:102E700000F0BCF928A20321022000F073FB4FF4FC
:102E80009670FDF767FC012010BD0000204D4350F7
:102E90003437323520436865636B20200000000022
:102EA0005B4572726F725D204D435034373235206E
:102EB000496E6974204661696C6564200D0A0000E2
:102EC0002020204661696C656420202000000000FD
:102ED00020205072657373202052455345542020A2
:102EE000000000002020436F6465203A202020204D
:102EF00020202020000000005B496E666F5D204DA1
:102F000043503437323520496E697420436F6D70F9
:102F10006C657465200D0A00202041636365707440
:102F2000656420200000000010B504460846FDF747
:102F3000C7FA1049FDF75EF90F49FDF75BF90F4934
:102F4000FDF78AF90C21FDF7C5F9FDF7BEFA80B24D
:102F5000FDF7B6FA0A49FDF74DF90A49FDF7F2F80F
:102F6000FDF7B3FA82B22046BDE810400021FFF71A
:102F7000B9BE0000CDCC4C3D0AD7233C6F12834034
:102F8000AE47813F0000A040FEE7704710B4C27812
:102F900001784FF00F0C01242AB3194A126801F18D
:102FA000E02102F4E062C2F5E062120AC2F1040319
:102FB0002CFA02F290F801C00CFA03F390F802C068
:102FC0000CEA02021A43120181F80024007800F092
:102FD0001F0104FA01F14009800000F1E020C0F86F
:102FE000001110BC704701F01F0004FA00F04909FD
:102FF000890001F1E021C1F8800110BC7047000098
:103000000CED00E0034940F0FD7040F08060086086
:10301000704700000CED00E070B50025102645F06B
:10302000B00000F0D7FA304600F0D4FA022000F0E9
:10303000D1FA0024002000F001FB611CCCB2842CEA
:10304000F8D3681CC5B2082DE9D370BD2DE9F04155
:103050000024144F0546802626FA04F000EA0502F3
:103060004FF480513846FFF7E8F901225103384602
:10307000FFF7E3F900224FF400513846FFF7DDF97E
:10308000601CC4B2082CE7D3012251033846FFF775
:10309000D4F93846BDE8F04100224FF40051FFF763
:1030A000CCB90000000C0140F8B500210020401C04
:1030B000B0F57A7FFBD3491CB1F57A7FF6D30121B5
:1030C000082000F037FB14208DF8030003208DF852
:1030D00002004FF400503B4CADF80000694620461A
:1030E000FFF708F9A114ADF8001069462046FFF774
:1030F00001F9012251032046FFF79FF90122110334
:103100002046FFF79AF9AE2000F064FAD52000F0CF
:1031100061FA802000F05EFAA82000F05BFA3F2000
:1031200000F058FAD32000F055FA002000F052FACF
:10313000402000F04FFAA12000F04CFAC82000F027
:1031400049FADA2000F046FA122000F043FA812012
:1031500000F040FACF2000F03DFAD92000F03AFA12
:10316000F12000F037FADB2000F034FA302000F0D4
:1031700031FAA42000F02EFAA62000F02BFA8D20C0
:1031800000F028FA142000F025FAAF2000F022FA0F
:103190000025102645F0B00000F01CFA304600F083
:1031A00019FA022000F016FA0024002000F046FA76
:1031B000611CCCB2842CF8D3681CC5B2082DE9D3AD
:1031C000F8BD0000000C014010B50C4640F0B00006
:1031D00000F000FA102040EA141000F0FBF904F0AF
:1031E0000F00BDE81040801C00F0F4B92DE9F04755
:1031F0000746CE004000A6F10808A0F1020A1446D6
:103200004FF0FF3908F0FF010AF0FF00FFF7DCFF85
:103210001B48002500EB4414605D00F00FFA681CA9
:10322000C5B2082DF8D30AF0FF00F1B2FFF7CCFFCA
:1032300000256019007A00F001FA681CC5B2082D5B
:10324000F7D309EB470708F0FF01F8B2FFF7BCFF1F
:1032500000256019007C00F0F1F9681CC5B2082D4A
:10326000F7D3F1B2F8B2FFF7AFFF00256019007E87
:1032700000F0E4F9681CC5B2082DF7D3BDE8F0876B
:10328000803D00082DE9F0470746CE004000A6F13A
:103290000808A0F1020A14464FF0FF3908F0FF01B8
:1032A0000AF0FF00FFF790FF1F48002500EB4414D1
:1032B000605DC043C0B200F0C1F9681CC5B2082D02
:1032C000F6D30AF0FF00F1B2FFF77EFF0025601988
:1032D000007AC043C0B200F0B1F9681CC5B2082D35
:1032E000F5D309EB470708F0FF01F8B2FFF76CFFD1
:1032F00000256019007CC043C0B200F09FF9681C33
:10330000C5B2082DF5D3F1B2F8B2FFF75DFF002585
:103310006019007EC043C0B200F090F9681CC5B2CD
:10332000082DF5D3BDE8F087803D00082DE9F04178
:103330000646C800A0F108077000801E15464FF031
:10334000FF38F9B2C0B2FFF73FFF1148002400EB8D
:1033500005152819A0F5805090F8000E00F06EF9C0
:10336000601CC4B2082CF4D308EB4600F9B2C0B21A
:10337000FFF72AFF00242819A0F5805090F8080EC6
:1033800000F05CF9601CC4B2082CF4D3BDE8F081F5
:10339000A04400082DE9F0410646C800A0F1080746
:1033A0007000801E15464FF0FF38F9B2C0B2FFF72B
:1033B0000BFF1348002400EB05152819A0F58050D9
:1033C00090F8000EC043C0B200F038F9601CC4B2DF
:1033D000082CF2D308EB4600F9B2C0B2FFF7F4FEB6
:1033E00000242819A0F5805090F8080EC043C0B200
:1033F00000F024F9601CC4B2082CF2D3BDE8F081BF
:10340000A04400082DE9F0471E0090460F46814673
:103410004FF0000408BFBDE8F0871020311B8D1E5F
:103420004FF0010CB5F1FF3F03D00CFB00FC6D1E0B
:10343000FBD2B8FBFCF000F00F000A2807D200F125
:1034400030023819C1B24846FFF770FF06E000F1BC
:1034500037023819C1B24846FFF768FF601CC4B292
:10346000B442DAD3BDE8F0872DE9F0471E001746D5
:10347000884682464FF0000514BFDFF85090BDE843
:10348000F0870A20711B8C1E4FF0010CB4F1FF3F36
:1034900003D00CFB00FC641EFBD2B7FBFCF0A9FBC5
:1034A0000021C908494201EB810100EB410000F114
:1034B000300208EB0500C1B25046FFF737FF681C29
:1034C000C5B2B542DDD3BDE8F0870000CDCCCCCC91
:1034D0002DE9F04107461078002415460E46FF28D6
:1034E00008BFBDE8F0812A5D06EB4400C1B2384652
:1034F000FFF77CFE601CC4B2285DFF28F3D1BDE855
:10350000F0812DE9F04107461078002415460E465B
:10351000FF2808BFBDE8F0812A5D06EB4400C1B278
:103520003846FFF7AFFE601CC4B2285DFF28F3D118
:10353000BDE8F0812DE9F0410746107800241546DA
:103540000E46002808BFBDE8F0812A5D3019C1B2DF
:103550003846FFF7EBFE601CC4B2285D0028F4D1AA
:10356000BDE8F0812DE9F0410746107800241546AA
:103570000E46002808BFBDE8F0812A5D3019C1B2AF
:103580003846FFF707FF601CC4B2285D0028F4D15D
:10359000BDE8F0812DE9F041804610780024154601
:1035A0000E46002814BF5F1EBDE8F081BC4206EB4A
:1035B00004002A5DC1B2404602D1FFF7B7FE01E028
:1035C000FFF7E8FE601CC4B2285D0028EED1BDE81C
:1035D000F081000070B5184C054601221103204609
:1035E000FEF72BFF012251032046FEF726FF0022A3
:1035F000A1142046FEF721FF002261142046FEF7A9
:103600001CFF7820FFF722FD0020FFF71FFD284652
:10361000FFF71CFD0022A1142046FEF70EFF012239
:1036200051032046FEF709FF2046BDE87040012205
:103630001103FEF702BF0000000C014070B5184CEA
:103640000546012211032046FEF7F7FE0122510331
:103650002046FEF7F2FE0022A1142046FEF7EDFE02
:10366000002261142046FEF7E8FE7820FFF7EEFC0A
:103670004020FFF7EBFC2846FFF7E8FC0022A114EE
:103680002046FEF7DAFE012251032046FEF7D5FE62
:103690002046BDE8704001221103FEF7CEBE0000B7
:1036A000000C014038B500214FF4006000F042F8F2
:1036B00000211048FEF77EFE0121042000F03AF8B8
:1036C0004FF48070ADF8000010208DF80300032047
:1036D000094C8DF8020069462046FEF70BFEA11545
:1036E0002046FEF7A4FE4FF400410448FEF79FFE7B
:1036F00038BD0000C0001600000801400010014065
:1037000070470000044A0029D16914BF084321EA28
:103710000000D0617047000000100240044A0029F8
:10372000116914BF084321EA0000106170470000CE
:1037300000100240044A0029916914BF084321EA9D
:10374000000090617047000000100240254A10B44C
:103750005168254B11F00C0118BF042901D008292C
:1037600001D0036015E05168536801F470114FF007
:10377000020C13F4803F0CEB914103D0536813F417
:10378000003F03D0194B5943016002E0164B5943E7
:10379000016051680F23DFF858C003EA11111CF8CB
:1037A0000110036823FA01F141605368072404EA19
:1037B00013231CF8033021FA03F38360536804EAEF
:1037C000D3231CF80330D940C1605268032303EAB5
:1037D0009232ACF104039A5CB1FBF2F1016110BCCE
:1037E000704700000010024000127A0000093D00FE
:1037F000180000207047000030B5012187B0880311
:10380000FFF798FF01210420FFF794FF18208DF89F
:1038100013004FF40070ADF81000224D03248DF812
:10382000124004A92846FEF765FD48218DF81310C3
:103830002915ADF810108DF8124004A92846FEF79E
:1038400059FD4FF4E130009000200C21ADF80A1032
:10385000ADF80600144CADF80C00ADF80800ADF85A
:1038600004006946204600F09BF9012240F22551F0
:10387000204600F07DF94FF4A060FFF7C3FB25213F
:103880008DF8141001218DF817108DF815108DF892
:10389000161005A8FFF77AFB0121204600F037F942
:1038A00007B030BD00080140003801402DE9F0416B
:1038B0000D0006464FF000041ABFDFF85480154F84
:1038C000BDE8F0810A20291B01228B1EB3F1FF3FC6
:1038D00002D042435B1EFCD2B6FBF2F0A8FB0021F3
:1038E000C908494201EB810100EB410000F13001C0
:1038F000384600F0B3F98021384600F011F900286D
:10390000F9D0601CC4B2AC42DCD3BDE8F081000049
:10391000CDCCCCCC0038014070B5054600780024F1
:10392000002814BF084E70BD295D304600F096F99E
:103930008021304600F0F4F80028F9D0601CC4B2B1
:10394000285D0028F0D170BD0038014002480168B0
:10395000491C0160704700002800002009490968DF
:10396000B1FBF0F0401EB0F1807F00D3FEE74FF0D6
:10397000E02148610020886107220A61024981F83C
:10398000140D7047000000200FE000E0374882B0BF
:10399000016841F001010160426835491140416010
:1039A000016821F4102121F080710160016821F487
:1039B00080210160416821F4FE0141604FF41F0144
:1039C0008160002200920192016841F4803101601F
:1039D000016801F4003101910099491C009101999D
:1039E00019B90099B1F5A06FF2D1016811F4003F47
:1039F00008BF019233D0012101911E490A6842F0AB
:103A000010020A600A6822F003020A600A6842F0A3
:103A100002020A604168416041684160416841F4C6
:103A200080614160416821F47C114160416841F44A
:103A3000E8114160016841F080710160016811F096
:103A4000007FFBD0416821F003014160416841F0F3
:103A500002014160416801F00C010829FAD10649D0
:103A60004FF00060086002B0704700000010024094
:103A70000000FFF80020024008ED00E070B51D4C8A
:103A800040F22551204600F052F8012818BF70BDC1
:103A9000204600F0DFF8184BC1B200201A7801254B
:103AA00042B1DFF858C0012A0BD0022A08BF0A2908
:103AB00013D017E02F2902BF997800291D7011D16A
:103AC00009E00D291DBF5A780CF80210501C022085
:103AD00008BF187006D0587004E0187059780CF8B8
:103AE00001009D702046BDE8704040F2255100F075
:103AF00007B80000003801402C000020980000208A
:103B0000090A012202FA01F1C94301807047002924
:103B1000818914BF41F4005121F400518181704723
:103B20000246002012880A4218BF0120704710B4D4
:103B300001F01F020124C1F3421304FA02F24FF014
:103B4000000C012B04BF83891A4004D0022B0CBF48
:103B5000038A838A1A40090A008804FA01F108409E
:103B6000002A1CBF00284FF0010C604610BC7047B3
:103B7000C1F3421301F01F014FF0010C0CFA01F1E7
:103B8000012B08BF0C3003D0022B0CBF10301430B7
:103B9000002A026814BF114322EA01010160704744
:103BA00030B50446008A85B00D464CF6FF710840DA
:103BB000E98808432082A0894EF6F3110840A988BD
:103BC0002A8911436A8910430843A081A08A4FF6CD
:103BD000FF410840A9890843A0826846FFF7B6FD67
:103BE000A4F18040B0F59C300CBF03980298A189E5
:103BF00011F4004F00EBC00101EB0010296814BF65
:103C000049008900B0FBF1F0114A6FF0180CA2FBDB
:103C10000031490909010B0903FB0CF300EB830098
:103C2000A38913F4004F4FF0320314BF03EBC0001D
:103C300003EB0010A2FB00204FEA501014BF00F06D
:103C4000070000F00F000843208105B030BD0000E0
:103C50001F85EB518088C0F308007047C1F308014D
:103C600081807047FEE702E008C8121F08C1002AE1
:103C7000FAD170477047002001E001C1121F002AED
:103C8000FBD1704770B50C460546FCF713FD00F0FC
:103C90007040B0F1004F07D024F00040C0F1FF4069
:103CA000C00F04BF204670BD284670BD98B04FF4C9
:103CB0007A70FFF753FE6846FDF72CF914AA0CA999
:103CC0006846FEF7C9F99DF800000028F6D00CA957
:103CD0006846FCF7C5FF14AA0CA96846FDF74AFD23
:103CE0006846FDF7D1FDFEF74FFF8DF80100002873
:103CF0001CBF6846FDF73EF914AA0CA96846FDF7FB
:103D0000BBF8E4E770B50546FCF759FC04460146EC
:103D10002846FCF769FA15F0004F4FF07F410ED0AE
:103D2000B0F13F4F28BFB1EB400F0ED2B0F17C5F36
:103D30001DDDB1EB400F1AD313E0044617E0B0F1DC
:103D40003F4F08D9B1EB400F05D34FF07E512046CD
:103D5000FCF74AFAF1E7B0F17C5F08DBB1EB400F0A
:103D600005D34FF07E512046FCF7ECF9E5E72846F5
:103D700064F31E0070BD0000FEFFFDFFFBFFF7FFB8
:103D80000000000000000000000000000000000033
:103D90000000000000000000000000000000000023
:103DA0000000F888888888FF88888888F8000000E4
:103DB00000001F080808087F888888889F80F00016
:103DC00080828282828282E2A2928A8682808000BF
:103DD000000000000040807F0000000000000000A4
:103DE000002010E8242724A424342CE00000000044
:103DF0000080804F402018071010204F80000000E6
:103E0000909494F49F9494941010FF1012D4100086
:103E100020262524FE141414804027182641F00083
:103E20000000FE0282828282FA8282828282020004
:103E300080601F40404040407F4040445840400028
:103E40001060028C004464544D46445464C4040021
:103E500004047E0180403E0000FE00007E80E00001
:103E60004042CC0000FE829292FE929282FE0000BE
:103E700000003F10887F001E1212125E807F00003B
:103E80000474D454FF54D47414087784443C04005C
:103E9000828988E88B8888F9A8AAA9A8A98A8200BB
:103EA0000014A4442434AD6624940444A4140000F3
:103EB00008090808090909FD09090B08080908008B
:103EC000404042CC0040A09E8282829EA0202000E2
:103ED0000000003F908840432C102846418080001D
:103EE000001715D55557557D555755D51517000051
:103EF0004040407F555555555555557F40404000F1
:103F000000E000FF102002F29292929292F20200E0
:103F1000010000FF0000404F44444444444F40002F
:103F200088681FC80810C85452D1129408D01000D5
:103F3000091909FF0500FF1292FF005F807F000052
:103F400000007C40404040FF40404040FC000000FA
:103F5000007C40404040407F4040404040FC0000EA
:103F60000000F010101010FF10101010F0000000F2
:103F700000000F04040404FF040404040F00000004
:103F8000008060F80780601C1010FF101010000007
:103F9000010000FF000202020202FF020202020010
:103FA00000000080C0E0F0F8FCFEFF000000000010
:103FB0000000000103070F1F3F7FFF00000000000B
:103FC0000000000000FFFEFCF8F0E0C080000000F0
:103FD0000000000000FF7F3F1F0F070301000000EB
:103FE000FFFFFFFFFFFFFFFFFFFF7F3F1F0F078F59
:103FF000E7C3870F0F0F0783C1E0F0F8FCFEFFFF58
:10400000F9F1E1C3870F1F3F3F1F0F87C3E1F1F9AC
:104010003F1F0F87C3E1F0F8F8F0E1C3870F1F3FA0
:104020000000FCFCFCFC3C3C3C3C3C3C3C3C3C3C48
:104030000000FFFFFFFF0000000000000000000084
:104040003C3C3C3C3C3C3C3C3C3C3C3C3C3C3C3CB0
:104050000000000000000000000000000000000060
:104060003C3C3C3C3C3C3C3C3C3CFCFCFCFC000008
:1040700000000000000000000000FFFFFFFF000044
:1040800000000000000000000000FFFFFFFF000034
:1040900000000000000000000000FFFFFFFF000024
:1040A00000000000000000000000FFFFFFFF000014
:1040B0003C3C3C3C3C3C3C3C3C3C3F3F3F3F0000AC
:1040C00000000000000000000000000000000000F0
:1040D0003C3C3C3C3C3C3C3C3C3C3C3C3C3C3C3C20
:1040E0000000FFFFFFFF00000000000000000000D4
:1040F00000003F3F3F3F3C3C3C3C3C3C3C3C3C3C6C
:104100000000FFFFFFFF00000000000000000000B3
:104110000000FFFFFFFF00000000000000000000A3
:10412000000202C2020202FE828282828202000039
:104130004040407F4040407F404040404040400041
:10414000080888C8380C0B0808E8080808080800A0
:10415000020100FF40414141417F41414141400056
:1041600002E222223E8080FF80A09088868080002C
:10417000004382423E0000FF40210608102040001C
:1041800008088888888888FF8888888888080800C0
:10419000403800003C4040424C4040700408300031
:1041A00008080838C808090E0808C83808080800B0
:1041B0008080404020110A040A1120404080800085
:1041C00000FE225A86088868180FE80808080800C8
:1041D00000FF04080720110D41817F01050930000F
:1041E0000000E4242C3425262434AC2424200000B0
:1041F00080601F80929252494925241208000000D5
:104200001010D0FF9010021EE2020202E21E000017
:10421000040300FF0083804020130C132040800023
:1042200000001011161010F01010141310000000F0
:104230008181414121110D030D11214141818100F5
:1042400040404242424242FE4242424242404000DC
:10425000000000000040807F00000000000000001F
:10426000040444C44F4444C424242FB4240404004C
:1042700040442424150C04FE040C1524244440005E
:104280000000F8494A4C48F8484C4A49F8000000F8
:1042900010101312121212FF121212121310100029
:1042A0000000E28282828282828282FE000000001E
:1042B00000003F40404040404040404040780000C7
:1042C00004E4252624E4042020FF20E22C20200002
:1042D000104B827E020B90601C03003F4040700038
:1042E0002030AC6310202424A47F2434282620000E
:1042F00022672212120402FF49494949FF000000C7
:104300004040C05F5555D5555555555F404040001C
:1043100020603F251515FF904729112D438080000F
:10432000404042CC000000FC242424E22322200050
:104330000040201F20504C434040405F4040400020
:104340002030AC632018084848487F484848080097
:1043500022672212121200FE4242424242FE000036
:10436000000000FE929292FE929292FE00000000E7
:1043700044442425140C04FF040C14252444440054
:104380001060028C00FE02F202FE00F800FF000046
:1043900004047E018047300F10270047807F000013
:1043A000202020BEAAAAAAAAAAAAAABE202020002B
:1043B000008080AFAAAAAAFFAAAAAAAF80800000A4
:1043C000000000F8888C8A89888888F8000000003E
:1043D000000000FF44444444444444FF0000000003
:1043E0004044C4444444401010FF101010F000003A
:1043F000103C131014B840300E014080403F0000C4
:10440000404042CC009090909090FF101116100008
:104410000000003F1028603F1010010E3040F000F7
:10442000004042445840407F40405048C600000091
:10443000004044444444444444444444FF00000095
:104440000808E8292E28E80808C80C0BE808080026
:104450000000FF0949897F00000F40807F000000B5
:104460007E4A52FE524A7E202020FF20222C20002D
:10447000E90969076505B540300E010E304080003E
:10448000404042CC0000000000FF0000000000009F
:104490000000003F904820180700071820408000C7
:1044A000000000000000000000000000000000000C
:1044B000000000F8000000000000003330000000A1
:1044C00000100C06100C06000000000000000000A8
:1044D00040C07840C0784000043F04043F0404001A
:1044E000007088FC08300000001820FF211E00002A
:1044F000F008F000E018000000211C031E211E003F
:1045000000F00888700000001E21232419272110C4
:1045100010160E0000000000000000000000000067
:10452000000000E01804020000000007182040000E
:1045300000020418E00000000040201807000000FE
:10454000404080F0804040000202010F0102020062
:10455000000000F0000000000101011F0101010046
:10456000000000000000000080B0700000000000AB
:104570000000000000000000000101010101010134
:1045800000000000000000000030300000000000CB
:1045900000000000806018040060180601000000A0
:1045A00000E010080810E000000F102020100F009D
:1045B000001010F8000000000020203F2020000024
:1045C000007008080888700000302824222130007C
:1045D00000300888884830000018202020110E0084
:1045E0000000C02010F8000000070424243F24002D
:1045F00000F80888880808000019212020110E0002
:1046000000E0108888180000000F112020110E0013
:1046100000380808C83808000000003F000000000B
:104620000070880808887000001C222121221C00CC
:1046300000E010080810E0000000312222110F00F5
:10464000000000C0C000000000000030300000008A
:1046500000000080000000000000806000000000FA
:104660000000804020100800000102040810200013
:10467000404040404040400004040404040404005E
:1046800000081020408000000020100804020100F3
:10469000007048080808F0000000003036010000F3
:1046A000C030C828E810E0000718272423140B00A6
:1046B0000000C038E0000000203C23020227382020
:1046C00008F8888888700000203F202020110E0004
:1046D000C0300808080838000718202020100800FB
:1046E00008F808080810E000203F202020100F00E4
:1046F00008F88888E8081000203F202023201800B0
:1047000008F88888E8081000203F20000300000017
:10471000C03008080838000007182020221E0200B8
:1047200008F808000008F808203F210101213F2077
:10473000000808F8080800000020203F20200000A2
:1047400000000808F8080800C08080807F00000092
:1047500008F888C028180800203F200126382000CB
:1047600008F8080000000000203F20202020300032
:1047700008F8F800F8F80800203F003F003F20004C
:1047800008F830C00008F808203F200007183F0054
:10479000E01008080810E0000F10202020100F0083
:1047A00008F808080808F000203F21010101000076
:1047B000E01008080810E0000F18242438504F00BB
:1047C00008F8888888887000203F2000030C30207B
:1047D00000708808080838000038202121221C00B9
:1047E000180808F8080818000000203F2000000002
:1047F00008F808000008F808001F202020201F00EB
:104800000878880000C83808000007380E0100004A
:10481000F80800F80008F800033C0700073C030014
:10482000081868808068180820302C03032C30207A
:104830000838C800C83808000000203F20000000E9
:1048400010080808C8380800203826212020180041
:10485000000000FE020202000000007F4040400015
:10486000000C30C000000000000000010638C0004D
:1048700000020202FE000000004040407F000000F5
:10488000000004020202040000000000000000001A
:104890000000000000000000808080808080808018
:1048A0000002020400000000000000000000000000
:1048B00000008080808000000019242222223F20F6
:1048C00008F8008080000000003F112020110E0039
:1048D0000000008080800000000E112020201100C8
:1048E000000000808088F800000E112020103F207A
:1048F0000000808080800000001F222222221300FE
:10490000008080F0888888180020203F2020000048
:104910000000808080808000006B949494936000FD
:1049200008F8008080800000203F210000203F2008
:1049300000809898000000000020203F2020000008
:10494000000000809898000000C08080807F0000F8
:1049500008F8000080808000203F24022D302000D5
:10496000000808F8000000000020203F2020000080
:104970008080808080808000203F20003F20003F9A
:104980008080008080800000203F210000203F20A8
:104990000000808080800000001F202020201F0059
:1049A000808000808000000080FFA12020110E0088
:1049B0000000008080808000000E112020A0FF8079
:1049C000808080008080800020203F212000010026
:1049D000000080808080800000332424242419007B
:1049E000008080E0808000000000001F2020000088
:1049F0008080000000808000001F202020103F20C9
:104A0000808080000080808000010E300806010058
:104A100080800080008080800F300C030C300F00FD
:104A200000808000808080000020312E0E31200028
:104A3000808080000080808080818E701806010058
:104A4000FFBF2727FFFFFFFFFFF7F0F0F7FFFFFF94
:104A500000000000807C020200000000003F404097
:104A600000000000FF00000000000000FF00000048
:104A70000002027C800000000040403F0000000077
:104A80000006010102020404000000000000000012
:104A90000000000000000000000000000000000016
:104AA0000000000001000100010001000100010000
:104AB00002000300020003000300050005000500DA
:104AC00005000500050004000400040003000300C5
:104AD00002000100020001000100020001000100CB
:104AE00001000200020002000200020002000200B7
:104AF000020002000300020004000400040005009C
:104B00000300020001000100010003000300020095
:104B1000020004000200040003000400040004007A
:104B20000200020003000400040003000200010070
:104B30000100040004000100010001000100000068
:104B40000000000000000100010001000100010060
:104B500001000300030003000500000015161616EF
:104B600016161617FF1C00010203040018FF1C0094
:104B7000000000000018FF1B1A1A1A1A1A1A19FF4F
:104B8000A04B00080000002098000000663C0008D0
:104B9000384C00089800002068040000763C0008AB
:104BA00000A24A040000000000000000010203040B
:104BB00006070809020406080000000001020304B9
:104BC00001020304060708090000000000000000BD
:104BD000000105FF0106FF0A0BFF2526FF2728FF1E
:104BE0002A2BFF3536FF3738FF2C2D2E2FFF32337F
:104BF0003034FF30303030000D0E0A0BFF0003045C
:104C0000070809FF0C060D0E0FFF1F20210000FFF3
:104C10002223240000FF0C060D0E0A0BFF161600BF
:104C20002A2B001616FF12121D1E30311212FF120F
:084C3000121D1E30311212FFAB
:04000005080000ED02
:00000001FF
